S0030000FC
S3FD00000000101EFF1F6D120000750B0000750B0000750B0000750B0000750B0000750B0000750B0000750B0000750B0000750B0000750B0000750B0000750B0000750B0000750B0000750B0000750B0000750B0000750B0000750B0000750B0000750B0000750B0000750B0000750B0000750B0000750B0000750B0000750B0000750B0000750B0000750B0000750B0000750B0000750B0000750B0000750B0000750B0000750B0000750B0000750B0000750B0000750B0000750B0000750B0000750B0000750B0000750B0000750B0000750B0000750B0000750B0000750B0000750B0000750B0000750B0000750B0000750B0000750B0000750B000037
S3FD000000F8750B0000750B0000750B0000750B0000750B0000750B0000750B0000750B0000750B0000750B0000750B0000750B0000750B0000750B0000750B0000750B0000750B0000750B0000750B0000750B0000750B0000750B0000750B0000750B0000750B0000750B0000750B0000750B0000750B0000750B0000750B0000750B0000750B0000750B0000750B0000750B0000750B0000750B0000750B0000750B0000750B0000291D0000750B0000750B0000750B00004D1D0000750B0000750B0000750B0000750B0000750B0000750B0000750B0000750B0000750B0000750B0000750B0000750B0000750B0000750B0000750B0000750B00005A
S3FD000001F0750B0000750B0000750B0000750B0000750B0000750B0000750B0000750B0000750B0000750B0000750B0000750B0000750B0000750B0000750B0000750B0000750B0000750B0000750B0000750B0000750B0000750B0000750B0000750B0000750B0000750B0000750B0000750B0000750B0000750B0000750B0000750B0000750B0000750B0000750B0000750B0000750B0000750B0000750B0000750B0000750B0000750B0000750B0000750B0000750B0000750B0000750B0000750B0000750B0000750B0000750B0000750B0000750B0000750B0000750B0000750B0000750B0000750B0000750B0000750B0000750B0000750B000011
S3FD000002E8750B0000750B0000750B0000750B0000750B0000750B0000750B0000750B0000750B0000750B0000750B0000750B0000750B0000750B0000750B0000750B0000750B0000750B0000750B0000750B0000750B0000750B0000750B0000750B0000750B0000750B0000750B0000750B0000750B0000750B0000750B0000750B0000750B0000750B0000750B0000750B0000750B0000750B0000750B0000750B0000750B0000750B0000750B0000750B0000750B0000750B0000750B0000750B0000750B0000750B0000750B0000750B0000750B0000750B0000750B0000750B0000750B0000750B0000750B0000750B0000750B0000750B000018
S3FD000003E0750B0000750B0000750B0000750B0000750B0000750B0000750B0000750B0000FFFFFFFFFFFFFFFFFFFFFFFFFEFFFFFF0FB430B4029C0025002C02D1002007E06D1C2046641C90F900000028F8D1284630BC04B0704700002DE9F843DFF87A10DFF87A0081420DD0002408E0A100DFF86E004258A100DFF862004250641CB4F5826FF3D3DFF8520000F020FFDFF85250DFF85270DFF852008046A8EB050405E038467F1C29466D1C007808702046641E0028F5D1DFF83660DFF836008146A9EB060403E03146761C002008702046641E0028F7D1BDE8F84370470000FF1F000000001004FF1FB01F0000E309FF1FF009FF1F040AFF1F0000C8
S3FD000004D870B506460D4614462068401E002803D0401E002804D00AE070B26168884706E0F0B241B2A0680170A068401CA0602868401C2860BDE87040704700000FB42DE9F00F0025089C2146641C002008700A98002823D0099800688046B8F1000F19D1302020706D1C3AE00B9898FBF0F082460B980AFB00F0A8EB0006002E03DAF04300F1310600E03036D0462046641C71B201706D1CB8F1000FE6D120E0099800688146B9F1000F17D1302020706D1C16E00B98B9FBF0F083460B980BFB00F0A9EB00070A2F01D2303700E03737D9462046641C79B201706D1CB9F1000FE8D12846BDE8F00F04B070470FB410B5029C05E030200499059AFFF7D2
S3FD000005D083FF641C03988442F6DBBDE8104004B0704700000FB410B5029C05E020200499059AFFF771FF641C03988442F6DBBDE8104004B0704700000FB42DE9F84793B080461746002007901D9C72E2BAF1250F13D0BAF10A0F05D0504607A94246FFF753FF65E20D2007A94246FFF74DFF0A2007A94246FFF748FF5AE20026002008902BE0641C94F900002B280BDC2B2800DB14E023281EDC20281CDB202811D0232815D017E0302815DC2D2813DB2D2802D0302809D00EE046F001060EE046F002060BE046F0040608E046F0080605E046F0100602E0641E0120089008980028D0D000208146002008902AE0641C94F900008246AAF13000092836
S3FD000006C81FD84FEA80008744F0BF00F012B800F010B800F00EB800F00CB800F00AB800F008B800F006B800F004B800F002B800F000B8AAF130010A2009FB00F00818814602E0641E0120089008980028D1D0641C94F900002E2827D10020089020E0641C94F900003038092817D84FEA80008744F0BF00F015B800F013B800F011B800F00FB800F00DB800F00BB800F009B800F007B800F005B800F003B8641E0120089008980028DBD000E0641E641C94F900004C38002807D01C38002804D0001F002801D0FFE7641E641C94F900008246BAF16E0F24DCBAF16E0F00DBA0E1BAF1580F04DCBAF1580F00F09E80A0E1AAF16200072800F29C814FEAEE
S3FD000007C080008744F0BF00F0FCB800F051B900F02DB800F090B900F08EB900F08CB900F08AB900F023B8BAF16F0F04DCBAF16F0F00F0DB807FE1AAF17000082800F27B814FEA80008744F0BF00F0E7B800F073B900F071B900F037B900F06DB900F0E9B800F069B900F067B900F061B83F1D381F006806900AA806A901220A23FFF76AFE05460AA8401909900698002803DA2D2005906D1C11E006F00200002803D02B2005906D1C09E006F00400002803D0202005906D1C01E0002005900020049006F00800002811D00598002804D0059807A94246FFF721FE012004902846494607AA4346FFF78DFE4D4613E006F0010000280FD12846494607AAC1
S3FD000008B84346FFF793FE0598002804D0059807A94246FFF705FE012004900498002840F0BB800598002800F0B780059807A94246FFF7F6FDB0E03F1D381F006800900AA800A900221023FFF709FE05460AA8401909900020049006F00800002817D006F0100000280BD0302007A94246FFF7D8FD782007A94246FFF7D3FD012004902846494607AA4346FFF73FFE4D461EE006F0010000281AD106F01000002800D0AD1C2846494607AA4346FFF740FE06F0100000280BD0302007A94246FFF7B1FD782007A94246FFF7ACFD0120049006F01000002861D0049800285ED1302007A94246FFF79EFD782007A94246FFF799FDAD1C52E03F1D381F006891
S3FD000009B000900AA800A900220823FFF7ABFD054622E03F1D381F006800900AA800A900220223FFF79FFD054616E03F1D381F006800900AA800A900221023FFF793FD05460AE03F1D381F006800900AA800A900220A23FFF787FD05460AA84019099006F00800002807D02846494607AA4346FFF7CFFD4D4614E006F00100002810D12846494607AA4346FFF7D5FD09E009990998401E099091F9000007A94246FFF744FD099890F900000028F0D106F0010000284ED02846494607AA4346FFF7BBFD47E03F1D381F006840B20190019807A94246FFF72AFD3CE03F1D381F006802900298002835D00298FFF7BBFC054606F00100002810D12846494693
S3FD00000AA807AA4346FFF79AFD09E002990298401C029091F9000007A94246FFF709FD029890F900000028F0D106F00100002813D02846494607AA4346FFF780FD0CE03F1D381F0068039007990398016004E0504607A94246FFF7ECFC641C94F900008246BAF1000F7FF486AD079813B0BDE8F84704B070470FB430B583B001200090DFF82800019006A96FF003000840041D00A806992246FFF764FD0546284603B0BDE8304004B07047C046550B00000FB408B54BF20000C4F20E0002A991F9001001F00DF8BDE8084004B07047000008B5DFF818004EF60451CEF200010978FFF7CAFFBDE808407047C0461004FF1F08B582B048F23801C4F204011A
S3FD00000BA0086840F4785008604DF20200C4F20700007800F00800002807D04DF20201C4F20701087840F0080008700021C0F2131148F24400C4F20400016032200090012001904FF28000C0F2FA2000210022192300F0EAFBDFF8F4110860DFF8F0010068B0F5807F00DAFEE7DFF8E00100684FF47A7101F0BFF8DFF8D8110860DFF8D001016848F24400C4F20400006800F07040000F401CB1FBF0F1DFF8B8010160DFF8B001016848F24400C4F20400006800F07060000E401CB1FBF0F1DFF89C01016000F0CCF800F0DAF800F0E8F84BF20001C4F20E014AF20000C4F2060081420DD14FF440714CF21800C4F2040001604FF440714CF21C00C4F24A
S3FD00000C98040001604BF20001C4F20E014BF20000C4F2060081420DD14FF440714BF21000C4F2040001604FF440714BF20C00C4F2040001604BF20001C4F20E014CF20000C4F2060081420DD14FF440714CF20C00C4F2040001604FF440714CF20800C4F2040001604BF20001C4F20E014DF20000C4F2060081420DD14FF440714BF24400C4F2040001604FF440714BF24000C4F2040001604BF20001C4F20E014AF20000C4F20E0081420DD14FF440714DF26000C4F2040001604FF440714DF26400C4F2040001604BF20001C4F20E014BF20000C4F20E0081420DD14FF440714DF22000C4F2040001604FF440714DF22400C4F2040001604BF20001DA
S3FD00000D90C4F20E014AF20000C4F20600814209D04BF20001C4F20E014BF20000C4F2060081420BD14BF20000C4F20E00DFF8341009684FF4E13200F047FE0AE04BF20000C4F20E00DFF8201009684FF4E13200F03BFE02B0BDE808407047C046000AFF1FFC09FF1FF809FF1FF409FF1F48F20401C4F20401086840F4805008604FF4E86149F21800C4F204000160704748F24001C4F20401086840F0010008604FF4A8614BF20C00C4F204000160704708B54FF4807149F21000C4F20400016049F21001C4F20401086840F410200860572000F02FFABDE80840704708B500F09BFEFFF7E3FAFFF78FFEDFF81600FFF74FFE00F089FC00F007F800F07B
S3FD00000E88C1FEFEE7C0463E04FF1F000008B548F22400C4F20400006800F07000000907283BD84FEA80008744F0BF00F00EB800F011B800F014B800F017B800F01AB800F01DB800F020B800F023B8DFF80402FFF721FE26E0DFF8FC01FFF71CFE21E0DFF8F801FFF717FE1CE0DFF8F001FFF712FE17E0DFF8EC01FFF70DFE12E0DFF8E401FFF708FE0DE0DFF8E001FFF703FE08E0DFF8D801FFF7FEFD03E0DFF8D401FFF7F9FD48F22400C4F20400006800F00F00801F042826D84FEA80008744F0BF00F008B800F00BB800F00EB800F011B800F014B8DFF8A001FFF7DDFD17E0DFF89801FFF7D8FD12E0DFF89401FFF7D3FD0DE0DFF88C01FFF7CEFD02
S3FD00000F8008E0DFF88801FFF7C9FD03E0DFF88001FFF7C4FD48F22400C4F20400006800F47040000B0A38002803D0401E002805D009E0DFF86001FFF7B1FD0CE0DFF85801FFF7ACFD07E0DFF85401FFF7A7FDDFF85001FFF7A3FD00F0BFF848F24C00C4F20400006800F07060000EC01F002806D0801E002808D0801E00280AD00EE0DFF82401FFF78BFD0DE0DFF81C01FFF786FD08E0DFF81801FFF781FD03E0DFF81001FFF77CFD48F24C00C4F20400006800F07040000F001E002806D0C01F002808D0801E00280AD00EE0DFF8E800FFF766FD0DE0DFF8E400FFF761FD08E0DFF8DC00FFF75CFD03E0DFF8D800FFF757FD47F20000C4F20400006836
S3FD0000107800F47040000B401F042821D84FEA80008744F0BF00F008B800F01AB800F009B800F00CB800F00FB8DFF8A000FFF73AFD12E0DFF89C00FFF735FD0DE0DFF89400FFF730FD08E0DFF89000FFF72BFD03E0DFF88800FFF726FDBDE808407047C0464104FF1F4704FF1F4D04FF1F5304FF1F5904FF1F5F04FF1F6504FF1F7304FF1F8104FF1FA704FF1FB404FF1FC104FF1FCE04FF1FDB04FF1FE804FF1F1205FF1F2B05FF1F4405FF1F7205FF1F8605FF1F9D05FF1FB405FF1FCB05FF1FE905FF1FFE05FF1F1506FF1F2C06FF1F4A06FF1F5E06FF1F7206FF1F8606FF1F9B06FF1FF8B503210720C4F20200017000210620C4F202000170002180
S3FD000011700520C4F20200017000210420C4F20200017001210F20C4F20200017080210020C4F2020001700020C4F20200007800F080000028F7D00B20C4F2020004780A20C4F2020005780920C4F2020006780820C4F2020007780097DFF8980021462A463346FFF7A3FC03210720C4F20200017000210620C4F20200017000210520C4F20200017004210420C4F20200017001210F20C4F20200017080210020C4F2020001700020C4F20200007800F080000028F7D00B20C4F2020004780A20C4F2020005780920C4F2020006780820C4F2020007780097DFF8200021462A463346FFF765FC70210020C4F202000170BDE8F8407047C046B706FF1F73
S3FD00001268DC06FF1F4FF000004FF000014FF000024FF000034FF000044FF000054FF000064FF000074FF000084FF000094FF0000A4FF0000B4FF0000C62B6FFF7E1FDFFF7FEBF00000FB400994EF60850CEF20000016004B07047000038B504465B2C03DDDFF8F600FFF726FC201104EBD0604511281E002806D0401E002826D0401E002846D067E04EF2802CCEF2000CDCF800300122E10FC1EBC46001EBF06002FA00F01843CCF800004EF2001CCEF2000CDCF800300122E10FC1EBC46001EBF06002FA00F01843CCF8000044E04EF2842CCEF2000CDCF800300122E10FC1EBC46001EBF06002FA00F01843CCF800004EF2041CCEF2000CDCF800309E
S3FD000013600122E10FC1EBC46001EBF06002FA00F01843CCF8000021E04EF2882CCEF2000CDCF800300122E10FC1EBC46001EBF06002FA00F01843CCF800004EF2081CCEF2000CDCF800300122E10FC1EBC46001EBF06002FA00F01843CCF80000BDE838407047FA06FF1F00000FB42DE9F84F06469846DDF838B044F20600C4F20600007800F00C008008002811D144F20600C4F20600007800F01000002808D044F20600C4F20600007800F02000002801D00120BCE14FF28000C0F2FA20864201DD2120B4E10CA8007800280DD04CF2C060C0F22D00864205DB44F60000C0F2E810864201DD2220A2E10BA80078002802D001210BA80170B8F1010FE8
S3FD0000145802DBB8F1190F01DD412093E1BBF1180F02DBBBF1370F01DD42208BE196FBF8F0814648F28040C0F21E00814505DB40F60010C0F23D00814501DD43207AE196FBF8F00BFB00F0824646F60040C0F2DC20824505DB4EF20010C0F2F550824501DD452067E144F20100C4F20600047804F0C30441F20020C0F27A0086420BDC0BA80078C00040F010000CA9097889000843C0B204430AE00BA80078C00040F020000CA9097889000843C0B2044344F20100C4F20600047041F2D020C0F21300864201DC002720E042F2A050C0F22600864201DC012718E044F64030C0F24C00864201DC022710E049F28060C0F29800864201DC032708E042F63B
S3FD000015500050C0F23110864201DC042700E0052744F20000C4F20600047804F00304F800C0B200F0380040F08000C0B2044344F20000C4F2060004700CA8007800281BD000250AE044F20600C4F20600007800F00200002805D16D1C2DB244F620608542F0DB44F20600C4F20600007800F00200002801D12320E1E000250AE044F20600C4F20600007800F01000002804D06D1C2DB2B5F5FA6FF1DB44F20600C4F20600007800F01000002801D01120C6E000250BE044F20600C4F20600007800F00C008008022804D06D1C2DB2B5F5FA6FF0DB44F20600C4F20600007800F00C008008022801D01A20A9E044F20501C4F20601087840F020000870B5
S3FD0000164844F20400C4F20600047804F0E004A8F10100C0B2C0B200F01F002043C4B244F20400C4F20600047044F20500C4F20600047804F0E004ABF11800C0B2C0B200F01F0040F04000C0B2044344F20500C4F20600047000250AE044F20600C4F20600007800F02000002804D16D1C2DB2B5F5FA6FF1DB44F20600C4F20600007800F02000002801D116205CE000250AE044F20600C4F20600007800F04000002804D16D1C2DB2B5F57A6FF1DB44F20600C4F20600007800F04000002801D1442041E044F20400C4F20600007800F01F00401CC1B200A8417044F20500C4F20600007800F01F001830C1B200A8017044F20001C4F20601087800F058
S3FD000017403F00087000250BE044F20600C4F20600007800F00C008008032804D06D1C2DB2B5F5FA6FF0DB44F20600C4F20600007800F00C008008032801D01B2006E000A8017800A8407896FBF0F04843BDE8F84F04B0704708B54FF20100C4F20700007800F02000002803D0DFF85202FFF7B6F94FF20100C4F20700007800F01000002803D0DFF83E02FFF7A9F94FF20100C4F20700007800F00800002803D0DFF82602FFF79CF94FF20100C4F20700007800F00400002803D0DFF81202FFF78FF94FF20100C4F20700007800F00200002803D0DFF8FA01FFF782F94FF20100C4F20700007800F00100002803D0DFF8E601FFF775F94FF20000C4F2B0
S3FD000018380700007800F08000002803D0DFF8CE01FFF768F94FF20000C4F20700007800F04000002803D0DFF8BA01FFF75BF94FF20000C4F20700007800F02000002803D0DFF8A201FFF74EF94FF20000C4F20700007800F00400002803D0DFF88E01FFF741F94FF20000C4F20700007800F00200002803D0DFF87601FFF734F94FF20000C4F20700007800F00100002800F07780DFF85E01FFF726F9DFF85A014EF20001C4F207010978FFF71DF9DFF84E014EF20101C4F207010978FFF714F9DFF83E014EF20201C4F207010978FFF70BF9DFF832014EF20301C4F207010978FFF702F94EF20100C4F20700007800F00700032803D1DFF81201FFF7C2
S3FD00001930F5F84EF20100C4F20700007800F0070004280CD14EF20200C4F20700007800F00700012803D1DFF8EA00FFF7DFF84EF20100C4F20700007800F0070004280CD14EF20200C4F20700007800F00700022803D1DFF8C200FFF7C9F84EF20100C4F20700007800F0070004280CD14EF20200C4F20700007800F00700032803D1DFF89A00FFF7B3F84FF20000C4F207000078002818D14FF20100C4F207000078002811D1DFF87A004FF20001C4F207010978FFF79CF8DFF86A004FF20101C4F207010978FFF793F8BDE808407047C0463207FF1F5507FF1F6307FF1F7107FF1F8107FF1F9A07FF1FA607FF1FB607FF1FCA07FF1FDF07FF1FF407FC
S3FD00001A28FF1F0E08FF1F3F08FF1F5F08FF1F7F08FF1FA108FF1FC108FF1FD508FF1FEB08FF1F0109FF1F1709FF1F3D09FF1F00002DE9F8430446894690464AF20000C4F20600844208D148F23401C4F20401086840F48060086043E04BF20000C4F20600844208D148F23401C4F20401086840F40060086034E04CF20000C4F20600844208D148F23401C4F20401086840F48050086025E04DF20000C4F20600844208D148F23401C4F20401086840F40050086016E04AF20000C4F20E00844208D148F22801C4F20401086840F48060086007E048F22801C4F20401086840F400600860E07800F0F300E0700020A0704FF47A7009FB00F14FEA081007
S3FD00001B2091FBF0F085B221786FF01F000840C6B205F4F8500012C0B2C0B200F01F003043C0B22070E8B260704FF4FA4009FB00F14FEA081091FBF0F16801081A87B2A17A6FF01F000840C6B2F8B2C0B200F01F003043C0B2A072E07840F00C00E070BDE8F84370470FB418B40446207900F080000028FAD003A890F90000C0B2E07118BC04B0704708B500F00DF842F20002C4F2050211884FF6FE7008401080BDE808407047000072B64CF2205142F20E00C4F2050001804DF6281142F20E00C4F20500018062B6704700004FF20C01C4F20F01086840F4806008604FF20C01C4F20F01086840F0005008607047000008B5DFF89E00FEF783FF4FF49A
S3FD00001C18785148F23800C4F2040001605720FFF74BFB5B20FFF748FB00F042F8DFF87A00FEF770FFFFF7D4FF4FF21000C4F20F00006800F40020002809D14FF20002C4F20F0211686FF080500840106007E04FF20001C4F20F01086840F0805008604FF21010C4F20F00006800F08060002807D14FF400614FF20800C4F20F00016006E04FF400614FF20400C4F20F00016000F063F8C7E7C0466309FF1F7E09FF1F000040F20311C0F20A0149F24C00C4F20400016040F20311C0F20A014DF26800C4F2040001604FF4807149F22800C4F2040001604FF4807149F22C00C4F2040001604FF4807149F27000C4F2040001604FF4807149F27400C4F2AB
S3FD00001D100400016040F60041C3F200014FF21400C4F20F000160704708B54FF0FF3149F2A000C4F204000160DFF80C00FEF7EEFEBDE808407047C046C909FF1F08B54FF0FF314DF2A000C4F204000160DFF80C00FEF7DCFEBDE808407047C046D609FF1F38B5002406E0002501E0C0466D1CC82DFBD3641C47F230508442F4D3BDE838407047000080EA010C0CF0004C0028BCBFC0F100000CF1010C0029B8BFC1F1000100F0ED8088423CBF4FEA00014FF00000C0F0E5804FF01C024FEA1013B1EB133FDCBFA2F110024FEA1343B1EB131FDCBFA2F108024FEA13239942DCBFA2F104024FEA131300FA02F0C1F10001001802EB42024FEA82027A444D
S3FD00001E08974651EB430338BFA3EB0103404151EB430338BFA3EB0103404151EB430338BFA3EB0103404151EB430338BFA3EB0103404151EB430338BFA3EB0103404151EB430338BFA3EB0103404151EB430338BFA3EB0103404151EB430338BFA3EB0103404151EB430338BFA3EB0103404151EB430338BFA3EB0103404151EB430338BFA3EB0103404151EB430338BFA3EB0103404151EB430338BFA3EB0103404151EB430338BFA3EB0103404151EB430338BFA3EB0103404151EB430338BFA3EB0103404151EB430338BFA3EB0103404151EB430338BFA3EB0103404151EB430338BFA3EB0103404151EB430338BFA3EB0103404151EB430338BF96
S3B500001F00A3EB0103404151EB430338BFA3EB0103404151EB430338BFA3EB0103404151EB430338BFA3EB0103404151EB430338BFA3EB0103404151EB430338BFA3EB0103404151EB430338BFA3EB0103404151EB430338BFA3EB0103404151EB430338BFA3EB0103404151EB430338BFA3EB0103404151EB430338BFA3EB0103404151EB430338BFA3EB010340414FEA03011CF0004318BFC0F100001CF0010318BFC1F1000170474FEA00014FF00000704700007F
S3FD00001FB00A2A2A2A2A64656661756C745F69737220656E7465726564206F6E20766563746F722025642A2A2A2A2A0D0A0A000A0A000A4B31302D000A4B32302D000A4B33302D000A4B34302D000A4B36302D000A4B37302D000A4B353020616E64204B35322D000A4B353120616E64204B35332D000A556E7265636F676E697A6564204B696E657469732066616D696C79206465766963652E0A00383070696E2020202020202000383170696E202020202020200031303070696E2020202020200031323170696E2020202020200031343470696E202020202020000A556E7265636F676E697A6564204B696E65746973207061636B61676520636FF5
S3FD000020A864652E20202020202000446576696365207265766973696F6E20322E322020200A2000446576696365207265766973696F6E20322E342020200A20000A546869732076657273696F6E206F6620736F66747761726520646F65736E2774207265636F676E697A65200A00746865207265766973696F6E20636F64652E0A00313238206B4279746573206F6620502D666C6173680900323536206B4279746573206F6620502D666C6173680900353132206B4279746573206F6620502D666C6173680900455252212120556E646566696E656420502D666C6173682073697A650A0030206B4279746573206F6620466C65784E564D09003132AB
S3FD000021A038206B4279746573206F6620466C65784E564D0900323536206B4279746573206F6620466C65784E564D0900455252212120556E646566696E656420466C65784E564D2073697A650A00203332206B4279746573206F662052414D0A0A00203634206B4279746573206F662052414D0A0A00203936206B4279746573206F662052414D0A0A0020313238206B4279746573206F662052414D0A0A0020455252212120556E646566696E65642052414D2073697A650A0A00466C61736820706172616D657465722076657273696F6E2025642E25642E25642E25640A00466C6173682076657273696F6E2049442025642E25642E25642E25649D
S3FD000022980A000A4552522120496E76616C6964204952512076616C75652070617373656420746F20656E61626C65206972712066756E6374696F6E210A0053746F70204D6F64652041636B6E6F776C65646765204572726F722052657365740A00457A506F72742052657365740A004D444D2D41502052657365740A00536F6674776172652052657365740A00436F7265204C6F636B7570204576656E742052657365740A004A5441472052657365740A00506F7765722D6F6E2052657365740A0045787465726E616C2050696E2052657365740A005761746368646F6728434F50292052657365740A004C6F7373206F6620436C6F636B205265738A
S3FD0000239065740A004C6F772D766F6C74616765204465746563742052657365740A005B6F75745352535D57616B65757020626974207365742066726F6D206C6F7720706F776572206D6F646520657869740A005B6F75745352535D534D435F504D50524F542020203D202523303258200D0A005B6F75745352535D534D435F504D4354524C2020203D202523303258200D0A005B6F75745352535D534D435F564C4C534354524C2020203D202523303258200D0A005B6F75745352535D534D435F504D535441542020203D202523303258200D0A005B6F75745352535D204C4C532065786974200A005B6F75745352535D20564C4C533120657869746B
S3FD00002488200A005B6F75745352535D20564C4C53322065786974200A005B6F75745352535D20564C4C53332065786974200A005B6F75745352535D52434D5F53525330206973205A45524F2020203D202523303258200D0A005B6F75745352535D52434D5F53525331206973205A45524F2020203D202523303258200D0A005457522D4B36304E353132204750494F204578616D706C65210A000A204E6F7720626C756520616E6420677265656E204C454420697320746F67676C696E672E20507265737320737731206F722073773220746F207465737420696E746572727570742E0A0053573120507265737365640A0053573220507265737365E5
S31500002580640A0000000000000000000000000000D7
S7050000126C7C
